{
  "contractName": "ToDo",
  "abi": [
    {
      "inputs": [
        {
          "internalType": "uint256",
          "name": "",
          "type": "uint256"
        }
      ],
      "name": "tasks",
      "outputs": [
        {
          "internalType": "uint256",
          "name": "id",
          "type": "uint256"
        },
        {
          "internalType": "uint256",
          "name": "date",
          "type": "uint256"
        },
        {
          "internalType": "string",
          "name": "content",
          "type": "string"
        },
        {
          "internalType": "string",
          "name": "author",
          "type": "string"
        },
        {
          "internalType": "bool",
          "name": "done",
          "type": "bool"
        }
      ],
      "stateMutability": "view",
      "type": "function"
    },
    {
      "inputs": [
        {
          "internalType": "string",
          "name": "_content",
          "type": "string"
        },
        {
          "internalType": "string",
          "name": "_author",
          "type": "string"
        }
      ],
      "name": "createTask",
      "outputs": [],
      "stateMutability": "nonpayable",
      "type": "function"
    },
    {
      "inputs": [
        {
          "internalType": "uint256",
          "name": "id",
          "type": "uint256"
        }
      ],
      "name": "getTask",
      "outputs": [
        {
          "internalType": "uint256",
          "name": "",
          "type": "uint256"
        },
        {
          "internalType": "uint256",
          "name": "",
          "type": "uint256"
        },
        {
          "internalType": "string",
          "name": "",
          "type": "string"
        },
        {
          "internalType": "string",
          "name": "",
          "type": "string"
        },
        {
          "internalType": "bool",
          "name": "",
          "type": "bool"
        }
      ],
      "stateMutability": "view",
      "type": "function"
    },
    {
      "inputs": [],
      "name": "getTasksCount",
      "outputs": [
        {
          "internalType": "uint256",
          "name": "",
          "type": "uint256"
        }
      ],
      "stateMutability": "view",
      "type": "function"
    }
  ],
  "bytecode": "0x608060405234801561000f575f80fd5b50610c018061001d5f395ff3fe608060405234801561000f575f80fd5b506004361061004a575f3560e01c80631d65e77e1461004e578063292a4585146100825780638d9776721461009e5780639f899273146100d2575b5f80fd5b6100686004803603810190610063919061054f565b6100f0565b60405161007995949392919061062d565b60405180910390f35b61009c600480360381019061009791906107b8565b6102e2565b005b6100b860048036038101906100b3919061054f565b6103a8565b6040516100c995949392919061062d565b60405180910390f35b6100da610500565b6040516100e7919061082e565b60405180910390f35b5f806060805f8080549050861061013c576040517f08c379a0000000000000000000000000000000000000000000000000000000008152600401610133906108b7565b60405180910390fd5b5f8087815481106101505761014f6108d5565b5b905f5260205f2090600502016040518060a00160405290815f82015481526020016001820154815260200160028201805461018a9061092f565b80601f01602080910402602001604051908101604052809291908181526020018280546101b69061092f565b80156102015780601f106101d857610100808354040283529160200191610201565b820191905f5260205f20905b8154815290600101906020018083116101e457829003601f168201915b5050505050815260200160038201805461021a9061092f565b80601f01602080910402602001604051908101604052809291908181526020018280546102469061092f565b80156102915780601f1061026857610100808354040283529160200191610291565b820191905f5260205f20905b81548152906001019060200180831161027457829003601f168201915b50505050508152602001600482015f9054906101000a900460ff1615151515815250509050805f01518160200151826040015183606001518460800151955095509550955095505091939590929450565b5f808054905090505f4290505f6040518060a001604052808481526020018381526020018681526020018581526020015f151581525090505f81908060018154018082558091505060019003905f5260205f2090600502015f909190919091505f820151815f01556020820151816001015560408201518160020190816103699190610afc565b50606082015181600301908161037f9190610afc565b506080820151816004015f6101000a81548160ff02191690831515021790555050505050505050565b5f81815481106103b6575f80fd5b905f5260205f2090600502015f91509050805f0154908060010154908060020180546103e19061092f565b80601f016020809104026020016040519081016040528092919081815260200182805461040d9061092f565b80156104585780601f1061042f57610100808354040283529160200191610458565b820191905f5260205f20905b81548152906001019060200180831161043b57829003601f168201915b50505050509080600301805461046d9061092f565b80601f01602080910402602001604051908101604052809291908181526020018280546104999061092f565b80156104e45780601f106104bb576101008083540402835291602001916104e4565b820191905f5260205f20905b8154815290600101906020018083116104c757829003601f168201915b505050505090806004015f9054906101000a900460ff16905085565b5f8080549050905090565b5f604051905090565b5f80fd5b5f80fd5b5f819050919050565b61052e8161051c565b8114610538575f80fd5b50565b5f8135905061054981610525565b92915050565b5f6020828403121561056457610563610514565b5b5f6105718482850161053b565b91505092915050565b6105838161051c565b82525050565b5f81519050919050565b5f82825260208201905092915050565b5f5b838110156105c05780820151818401526020810190506105a5565b5f8484015250505050565b5f601f19601f8301169050919050565b5f6105e582610589565b6105ef8185610593565b93506105ff8185602086016105a3565b610608816105cb565b840191505092915050565b5f8115159050919050565b61062781610613565b82525050565b5f60a0820190506106405f83018861057a565b61064d602083018761057a565b818103604083015261065f81866105db565b9050818103606083015261067381856105db565b9050610682608083018461061e565b9695505050505050565b5f80fd5b5f80fd5b7f4e487b71000000000000000000000000000000000000000000000000000000005f52604160045260245ffd5b6106ca826105cb565b810181811067ffffffffffffffff821117156106e9576106e8610694565b5b80604052505050565b5f6106fb61050b565b905061070782826106c1565b919050565b5f67ffffffffffffffff82111561072657610725610694565b5b61072f826105cb565b9050602081019050919050565b828183375f83830152505050565b5f61075c6107578461070c565b6106f2565b90508281526020810184848401111561077857610777610690565b5b61078384828561073c565b509392505050565b5f82601f83011261079f5761079e61068c565b5b81356107af84826020860161074a565b91505092915050565b5f80604083850312156107ce576107cd610514565b5b5f83013567ffffffffffffffff8111156107eb576107ea610518565b5b6107f78582860161078b565b925050602083013567ffffffffffffffff81111561081857610817610518565b5b6108248582860161078b565b9150509250929050565b5f6020820190506108415f83018461057a565b92915050565b7f5461736b2077697468207468697320494420646f6573206e6f742065786973745f8201527f2e00000000000000000000000000000000000000000000000000000000000000602082015250565b5f6108a1602183610593565b91506108ac82610847565b604082019050919050565b5f6020820190508181035f8301526108ce81610895565b9050919050565b7f4e487b71000000000000000000000000000000000000000000000000000000005f52603260045260245ffd5b7f4e487b71000000000000000000000000000000000000000000000000000000005f52602260045260245ffd5b5f600282049050600182168061094657607f821691505b60208210810361095957610958610902565b5b50919050565b5f819050815f5260205f209050919050565b5f6020601f8301049050919050565b5f82821b905092915050565b5f600883026109bb7fffffffffffffffffffffffffffffffffffffffffffffffffffffffffffffffff82610980565b6109c58683610980565b95508019841693508086168417925050509392505050565b5f819050919050565b5f610a006109fb6109f68461051c565b6109dd565b61051c565b9050919050565b5f819050919050565b610a19836109e6565b610a2d610a2582610a07565b84845461098c565b825550505050565b5f90565b610a41610a35565b610a4c818484610a10565b505050565b5b81811015610a6f57610a645f82610a39565b600181019050610a52565b5050565b601f821115610ab457610a858161095f565b610a8e84610971565b81016020851015610a9d578190505b610ab1610aa985610971565b830182610a51565b50505b505050565b5f82821c905092915050565b5f610ad45f1984600802610ab9565b1980831691505092915050565b5f610aec8383610ac5565b9150826002028217905092915050565b610b0582610589565b67ffffffffffffffff811115610b1e57610b1d610694565b5b610b28825461092f565b610b33828285610a73565b5f60209050601f831160018114610b64575f8415610b52578287015190505b610b5c8582610ae1565b865550610bc3565b601f198416610b728661095f565b5f5b82811015610b9957848901518255600182019150602085019450602081019050610b74565b86831015610bb65784890151610bb2601f891682610ac5565b8355505b6001600288020188555050505b50505050505056fea264697066735822122093eede9e2dff92cf24be34a9c5dd5a6d7b2144951552515f592f8aa855bc1d9764736f6c63430008150033",
  "immutableReferences": {},
  "source": "// SPDX-License-Identifier: MIT\npragma solidity >=0.4.22 <0.9.0;\n\ncontract ToDo {\n    struct Task {\n        uint256 id;\n        uint256 date;\n        string content;\n        string author;\n        bool done;\n    }\n\n    Task[] public tasks;\n\n    function createTask(string memory _content, string memory _author) public {\n        uint256 taskId = tasks.length;\n        uint256 taskDate = block.timestamp;\n        Task memory newTask = Task(taskId, taskDate, _content, _author, false);\n        tasks.push(newTask);\n    }\n\n    function getTask(uint256 id) public view returns (uint256, uint256, string memory, string memory, bool) {\n        require(id < tasks.length, \"Task with this ID does not exist.\");\n        Task memory task = tasks[id];\n        return (task.id, task.date, task.content, task.author, task.done);\n    }\n\n    function getTasksCount() public view returns (uint256) {\n        return tasks.length;\n    }\n}\n",
  "sourcePath": "D:\\blockchain\\project2\\contracts\\ToDo.sol",
  "compiler": {
    "name": "solc",
    "version": "0.8.21+commit.d9974bed.Emscripten.clang"
  },
  "schemaVersion": "3.4.15",
  "updatedAt": "2023-09-03T09:13:01.155Z",
  "devdoc": {
    "kind": "dev",
    "methods": {},
    "version": 1
  },
  "userdoc": {
    "kind": "user",
    "methods": {},
    "version": 1
  }
}